:100000000C94A6000C94C7000C94C7000C94C70075
:100010000C94C7000C94C7000C94C7000C94C70044
:100020000C94C7000C94C7000C94C7000C94C70034
:100030000C94C7000C94C7000C94C7000C94C70024
:100040000C94C7000C94C7000C94C7000C94C70014
:100050000C94C7000C94C7000C94C7000C94C70004
:100060000C94C7000C94C7000C94C7000C94C700F4
:100070000C94C7000C94C7000C94C7000C94C700E4
:100080000C94C7000C94C7000C94C7000C94C700D4
:100090000C94C7000C94C7000C94C7000C94C700C4
:1000A0000C94C7000C94C7000C94C7000C94C700B4
:1000B0000C94C7000C94C7000C94C7000C94C700A4
:1000C0000C94C7000C94C7000C94C7000C94C70094
:1000D0000C94C7000C94C7000C94C7000C94C70084
:1000E0000C94C7001B031E032A03360342034E036E
:1000F0005A03660371037C03870392039D03A003E5
:10010000A003AB03B703C7030C9466030C9442032C
:100110000C94AB030C941E030C947C030C94A0036E
:100120000C94B7030C94C7030C949D030C941B030D
:100130000C942A030C9471030C9492030C945A03AC
:100140000C9436030C944E030C94870311241FBEA9
:10015000CFEFD1E2DEBFCDBF00E00CBF12E0A0E0E8
:10016000B2E0ECEDFEE000E00BBF02C007900D92A4
:10017000AC30B107D9F722E0ACE0B2E001C01D928B
:10018000AD3BB207E1F70E945C040C946C070C9441
:1001900000001092C50087E68093C40088E1809338
:1001A000C10086E08093C20008958091C00087FF5F
:1001B000FCCF8091C60008959091C00095FFFCCFC0
:1001C0008093C6000895CF93DF93EC018991882333
:1001D00019F00E94DC00FACFDF91CF9108950F93C0
:1001E0001F93CF93DF93CDB7DEB764970FB6F89424
:1001F000DEBF0FBECDBF9F938F9388E092E09F93A9
:100200008F938E010F5F1F4F1F930F930E948304E4
:10021000C8010E94E3000F900F900F900F900F9075
:100220000F9064960FB6F894DEBF0FBECDBFDF917E
:10023000CF911F910F910895EF92FF920F931F930B
:10024000CF93DF938C01EB017A0128E232E040E0AA
:1002500050E060E070E080E00E942A048091280273
:100260009091290220910402309105028217930790
:1002700020F49093050280930402209113023091A0
:1002800014022817390720F4909314028093130264
:100290002091040230910502809113029091140282
:1002A000820F931F9695879590938D0280938C0271
:1002B000F7019183808380918D02F8018083809182
:1002C0008C028883DF91CF911F910F91FF90EF9067
:1002D0000895EF92FF920F931F93CF93DF938C01BA
:1002E000EB017A0126E232E040E050E060E070E0AD
:1002F00081E00E942A048091260290912702209199
:100300000202309103028217930720F490930302B4
:1003100080930202209111023091120228173907AE
:1003200020F49093120280931102209102023091E6
:1003300003028091110290911202820F931F9695F1
:1003400087959093B7028093B602F70191838083DB
:100350008091B702F80180838091B6028883DF9193
:10036000CF911F910F91FF90EF900895EF92FF9220
:100370000F931F93CF93DF938C01EB017A0124E25B
:1003800032E040E050E060E070E082E00E942A0449
:100390008091240290912502209100023091010267
:1003A0008217930720F4909301028093000220911A
:1003B0000F02309110022817390720F49093100291
:1003C00080930F02209100023091010280910F0270
:1003D00090911002820F931F969587959093360205
:1003E00080933502F7019183808380913602F80172
:1003F0008083809135028883DF91CF911F910F9187
:10040000FF90EF900895EF92FF920F931F93CF9379
:10041000DF93EC018B017A0128E232E040E050E00A
:1004200060E070E080E00E942A0426E232E040E0D2
:1004300050E060E070E081E00E942A0424E232E0B3
:1004400040E050E060E070E082E00E942A042091E9
:1004500028023091290280910E02E216F30610F470
:10046000816001C08E7F80930E0220912602309120
:10047000270280910E020217130710F4826001C058
:100480008D7F80930E02209124023091250280916D
:100490000E02C217D30710F4846001C08B7F8093D3
:1004A0000E0280910E02DF91CF911F910F91FF906C
:1004B000EF900895843041F0823041F0873041F070
:1004C000853041F484E508958CE4089589E4089525
:1004D0008BE2089582E50895CF92DF92EF92FF922A
:1004E0000F931F93CF93DF9328E232E040E050E078
:1004F00060E070E080E00E942A0426E232E040E002
:1005000050E060E070E081E00E942A0424E232E0E2
:1005100040E050E060E070E082E00E942A044091F8
:100520003002509131022091280230912902CA01F3
:10053000880F991FFC01E95CFD4F31832083C09136
:100540002602D0912702FC01E257FD4FD183C083E0
:10055000E0912402F0912502DC01AC59BD4FED93EE
:10056000FC93453151050CF4BFCF8091600290910E
:100570006102820F931F04E110E0B8010E9467043A
:100580006B017093610260936002809132029091DE
:100590003302820F931FB8010E9467047B0170939E
:1005A0003302609332028091620290916302820F63
:1005B000931FB8010E946704709363026093620204
:1005C00080910D02C216D30610F4816001C08E7FA7
:1005D00080930D0280910D02EC16FD0610F48260EE
:1005E00001C08D7F80930D0280910D026E177F07F1
:1005F00010F4846001C08B7F80930D0280910D0206
:10060000DF91CF911F910F91FF90EF90DF90CF90EE
:100610000895809107020E94DA038093060290E019
:100620008231910508F0C0C0FC018827EE58FF4FC9
:100630008F4F0C947B0410920702089520E030E065
:100640004EE252E060E070E080E00E942A04809177
:100650002E02A8C020E030E040E050E06FE272E0FF
:1006600080E00E942A0480912F029CC020E030E0AC
:100670004CE252E060E070E081E00E942A04809148
:100680002C0290C020E030E040E050E06DE272E0EB
:1006900081E00E942A0480912D0284C020E030E095
:1006A0004AE252E060E070E082E00E942A04809119
:1006B0002A0278C020E030E040E050E06BE272E0D7
:1006C00082E00E942A0480912B026CC04CE152E02F
:1006D00062E272E080E090E00E941C0180912202C0
:1006E00061C04CE152E060E070E083E292E00E9481
:1006F0001C018091230256C04AE152E060E272E0A0
:1007000080E090E00E946901809120024BC04AE1A4
:1007100052E060E070E081E292E00E946901809125
:10072000210240C048E152E06EE172E080E090E0DA
:100730000E94B60180911E0235C048E152E002C01D
:1007400040E050E060E070E08FE192E00E94B6018E
:1007500080911F0227C04091230250E06091210246
:1007600070E080911F0290E00E9403021BC0409144
:10077000230250E06091210270E080911F0290E01E
:100780000E94030280930C020E945A020BC0409107
:10079000170250E06091160270E08091150290E01F
:1007A0000E946C0280930702089588E084B980E477
:1007B0008CBD08958EBD0DB407FEFDCF8EB5089596
:1007C000CF93DF93EC018991882319F00E94DA031B
:1007D000FACFDF91CF9108950F931F93CF93DF93BB
:1007E000CDB7DEB7C456D1090FB6F894DEBF0FBE41
:1007F000CDBF9F938F9388E092E09F938F938E015C
:100800000F5F1F4F1F930F930E948304C8010E9424
:10081000E0038EB50F900F900F900F900F900F90F8
:10082000CC59DF4F0FB6F894DEBF0FBECDBFDF91BE
:10083000CF911F910F910895EAE7F0E080818660E3
:100840008083ACE7B0E08C9180648C938081806879
:100850008083089590917C00907E90937C0090918D
:100860007C00892B80937C0080917A008064809347
:100870007A0080917A0084FFFCCF80917A008061B9
:1008800080937A008091780080935F029091790044
:1008900090933402FA01808380913402FB018083BB
:1008A0008091340290E0982F882740915F02842B3A
:1008B000F9019183808308950E941C040E94D5034E
:1008C0000E94C9008FEF81B90E940903FDCFAA1BC6
:1008D000BB1B51E107C0AA1FBB1FA617B70710F02B
:1008E000A61BB70B881F991F5A95A9F7809590955D
:1008F000BC01CD010895EE0FFF1F881F8BBF07902D
:10090000F691E02D19940F931F93CF93DF93CDB7FA
:10091000DEB72E970FB6F894DEBF0FBECDBF0E899F
:100920001F8986E08C831A8309838FEF9FE79E835C
:100930008D83AE01465E5F4F688D798DCE01019645
:100940000E94B204EF81F885E00FF11F10822E960D
:100950000FB6F894DEBF0FBECDBFDF91CF911F91D0
:100960000F9108952F923F924F925F926F927F92D4
:100970008F929F92AF92BF92CF92DF92EF92FF92AF
:100980000F931F93CF93DF93CDB7DEB72B970FB69F
:10099000F894DEBF0FBECDBF6C017B018A01FC0164
:1009A00017821682838181FFCCC1CE0101963C0162
:1009B000F6019381F70193FD859193FF81917F016A
:1009C000882309F4BAC1853239F493FD859193FFE8
:1009D00081917F01853229F4B60190E00E94D20610
:1009E000E7CF912C212C312CFFE1F315D8F08B327D
:1009F00079F038F4803279F08332A1F4232D20612C
:100A00001DC08D3261F0803369F4232D216016C042
:100A1000832D8260382EE32DE4603E2E2AC0F32D14
:100A2000F8601DC037FC2DC020ED280F2A3040F0A3
:100A30008E32B9F436FC81C1232D2064322E19C0C8
:100A400036FE06C08AE0989E200D1124922E11C019
:100A5000EAE02E9E200D1124222EF32DF0623F2E6F
:100A600008C08C3621F4832D8068382E02C0883669
:100A700041F4F70193FD859193FF81917F018111ED
:100A8000B3CF982F9F7D9554933028F40C5F1F4F60
:100A90009FE399830DC0833631F0833771F083353E
:100AA00009F059C021C0F801808189830E5F1F4F72
:100AB00088248394912C530113C02801F2E04F0E37
:100AC000511CF801A080B18036FE03C0692D70E092
:100AD00002C06FEF7FEFC5010E94C7064C01820183
:100AE000F32DFF773F2E16C0280122E0420E511C45
:100AF000F801A080B18036FE03C0692D70E002C00D
:100B00006FEF7FEFC5010E94BC064C01F32DF0682A
:100B10003F2E820133FC1BC0822D90E0881699067F
:100B2000B0F4B60180E290E00E94D2062A94F4CF9D
:100B3000F50137FC859137FE81915F01B60190E0A8
:100B40000E94D20621102A9421E0821A9108811471
:100B5000910471F7E8C0843611F0893641F5F80147
:100B600037FE07C060817181828193810C5F1F4FC6
:100B700008C060817181072E000C880B990B0E5FF5
:100B80001F4FF32DFF763F2E97FF09C0909580955C
:100B9000709561957F4F8F4F9F4FF0683F2E2AE0F1
:100BA00030E0A3010E940E07882E861845C08537C5
:100BB00031F4232D2F7EB22E2AE030E025C0932D74
:100BC000997FB92E8F36C1F018F4883579F0B5C009
:100BD000803719F0883721F0B0C0E92FE061BE2ED0
:100BE000B4FE0DC0FB2DF460BF2E09C034FE0AC058
:100BF000292F2660B22E06C028E030E005C020E193
:100C000030E002C020E132E0F801B7FE07C06081A9
:100C10007181828193810C5F1F4F06C06081718159
:100C200080E090E00E5F1F4FA3010E940E07882E08
:100C30008618FB2DFF773F2E36FE0DC0232D2E7F0D
:100C4000A22E891458F434FE0BC032FC09C0832D47
:100C50008E7EA82E05C0B82CA32C03C0B82C01C0D2
:100C6000B92CA4FE0FC0FE01E80DF11D8081803378
:100C700021F49A2D997EA92E09C0A2FE06C0B39434
:100C8000B39404C08A2D867809F0B394A3FC11C0F4
:100C9000A0FE06C0B21488F4280C922C9B180EC03B
:100CA000B21460F4B60180E290E00E94D206B394E0
:100CB000F7CFB21418F42B1802C0982C212CA4FEE4
:100CC00010C0B60180E390E00E94D206A2FE17C0D9
:100CD000A1FC03C088E790E002C088E590E0B6017F
:100CE0000CC08A2D867859F0A1FE02C08BE201C0AB
:100CF00080E2A7FC8DE2B60190E00E94D206891442
:100D000038F4B60180E390E00E94D2069A94F7CFBF
:100D10008A94F301E80DF11D8081B60190E00E94F4
:100D2000D2068110F5CF222009F442CEB60180E22E
:100D300090E00E94D2062A94F6CFF6018681978130
:100D400002C08FEF9FEF2B960FB6F894DEBF0FBE59
:100D5000CDBFDF91CF911F910F91FF90EF90DF906A
:100D6000CF90BF90AF909F908F907F906F905F904B
:100D70004F903F902F900895FC0105906150704076
:100D80000110D8F7809590958E0F9F1F0895FC0154
:100D90006150704001900110D8F7809590958E0FAA
:100DA0009F1F08950F931F93CF93DF93FB01238120
:100DB00021FD03C08FEF9FEF2CC022FF16C046819C
:100DC0005781248135814217530744F4A081B181B2
:100DD0009D012F5F3F4F318320838C932681378184
:100DE0002F5F3F4F3783268314C08B01EC01FB013B
:100DF0000084F185E02D1995892BE1F6D80116962E
:100E00008D919C911797019617969C938E931697A8
:100E1000CE01DF91CF911F910F910895FA01AA277A
:100E2000283051F1203181F1E8946F936E7F6E5F2D
:100E30007F4F8F4F9F4FAF4FB1E03ED0B4E03CD0DB
:100E4000670F781F891F9A1FA11D680F791F8A1FBE
:100E5000911DA11D6A0F711D811D911DA11D20D025
:100E600009F468943F912AE0269F11243019305DDF
:100E70003193DEF6CF010895462F4770405D4193D0
:100E8000B3E00FD0C9F7F6CF462F4F70405D4A331D
:100E900018F0495D31FD4052419302D0A9F7EACFE5
:100EA000B4E0A6959795879577956795BA95C9F714
:100EB00000976105710508959B01AC010A2E069407
:100EC0005795479537952795BA95C9F7620F731FC0
:0C0ED000841F951FA01D0895F894FFCF0B
:0C0EDC00FF03FF03FF0330422564000009
:00000001FF
