:100000000C94A3000C94C4000C94C4000C94C40081
:100010000C94C4000C94C4000C94C4000C94C40050
:100020000C94C4000C94C4000C94C4000C94C40040
:100030000C94C4000C94C4000C94C4000C94C40030
:100040000C94C4000C94C4000C94C4000C94C40020
:100050000C94C4000C94C4000C94C4000C94C40010
:100060000C94C4000C94C4000C94C4000C94C40000
:100070000C94C4000C94C4000C94C4000C94C400F0
:100080000C94C4000C94C4000C94C4000C94C400E0
:100090000C94C4000C94C4000C94C4000C94C400D0
:1000A0000C94C4000C94C4000C94C4000C94C400C0
:1000B0000C94C4000C94C4000C94C4000C94C400B0
:1000C0000C94C4000C94C4000C94C4000C94C400A0
:1000D0000C94C4000C94C4000C94C4000C94C40090
:1000E0000C94C4006C026F027B02870293029F0291
:1000F000AB02B702C202CD02D802E302EE02F10265
:10010000F102FC0208030C94FC020C94EE020C9425
:100110006C020C94D8020C94AB020C9493020C94D5
:10012000E3020C947B020C94C2020C94F1020C9436
:10013000CD020C946F020C9487020C9408030C946B
:10014000B7020C949F0211241FBECFEFD1E2DEBF95
:10015000CDBF00E00CBF12E0A0E0B2E0EEE3FDE0B6
:1001600000E00BBF02C007900D92AC30B107D9F789
:1001700022E0ACE0B2E001C01D92A933B207E1F782
:100180000E94A1030C949D060C9400001092C500DF
:1001900087E68093C40088E18093C10086E0809365
:1001A000C20008958091C00087FFFCCF8091C600F7
:1001B00008959091C00095FFFCCF8093C6000895EC
:1001C000CF93DF93EC018991882319F00E94D90025
:1001D000FACFDF91CF9108950F931F93CF93DF93C1
:1001E000CDB7DEB764970FB6F894DEBF0FBECDBFB4
:1001F0009F938F9388E092E09F938F938E010F5F80
:100200001F4F1F930F930E94B403C8010E94E00088
:100210000F900F900F900F900F900F9064960FB665
:10022000F894DEBF0FBECDBFDF91CF911F910F912C
:100230000895EF92FF920F931F93CF93DF938C015A
:10024000EB017A0124E232E040E050E060E070E04F
:1002500080E00E946F0380912402909125022091FA
:100260000402309105028217930720F4909305024F
:10027000809304022091120230911302281739074B
:1002800020F4909313028093120220910402309183
:1002900005028091120290911302820F931F96958E
:1002A00087959093310280933002F7019183808388
:1002B00080913102F8018083809130028883DF9140
:1002C000CF911F910F91FF90EF900895EF92FF92C1
:1002D0000F931F93CF93DF938C01EB017A0122E2FE
:1002E00032E040E050E060E070E081E00E946F03A7
:1002F0008091220290912302209102023091030208
:100300008217930720F490930302809302022091B6
:100310001002309111022817390720F4909311022E
:10032000809310022091020230910302809110020A
:1003300090911102820F931F9695879590933302A7
:1003400080933202F7019183808380913302F80118
:100350008083809132028883DF91CF911F910F912A
:10036000FF90EF900895EF92FF920F931F93CF931A
:10037000DF938C01EB017A0120E232E040E050E0B3
:1003800060E070E082E00E946F0380912002909113
:10039000210220910002309101028217930720F47C
:1003A000909301028093000220910E0230910F027F
:1003B0002817390720F490930F0280930E022091A2
:1003C00000023091010280910E0290910F02820F83
:1003D000931F9695879590932E0280932D02F70197
:1003E0009183808380912E02F801808380912D0279
:1003F0008883DF91CF911F910F91FF90EF90089527
:1004000024E232E040E050E060E070E080E00E94F2
:100410006F0322E232E040E050E060E070E081E013
:100420000E946F0320E232E040E050E060E070E0C4
:1004300082E00E946F032091240230912502809176
:100440000D02253F314010F0816001C08E7F809306
:100450000D02209122023091230280910D02253F4E
:10046000314010F0826001C08D7F80930D02209199
:1004700020023091210280910D02253F314010F081
:10048000846001C08B7F80930D0280910D020895DE
:10049000843041F0823041F0873041F0853041F4C2
:1004A00084E508958CE4089589E408958BE2089525
:1004B00082E50895809107020E941F03809306023F
:1004C00090E08131910508F0B4C0FC018827EE5816
:1004D000FF4F8F4F0C94AC0310920702089520E059
:1004E00030E04AE252E060E070E080E00E946F039A
:1004F00080912A029CC020E030E040E050E06BE2B6
:1005000072E080E00E946F0380912B0290C020E097
:1005100030E048E252E060E070E081E00E946F036A
:100520008091280284C020E030E040E050E069E2A1
:1005300072E081E00E946F038091290278C020E080
:1005400030E046E252E060E070E082E00E946F033B
:10055000809126026CC020E030E040E050E067E28D
:1005600072E082E00E946F038091270260C048E140
:1005700052E06EE172E080E090E00E94190180910B
:100580001E0255C048E152E060E070E08FE192E069
:100590000E94190180911F024AC046E152E06CE1BD
:1005A00072E080E090E00E94660180911C023FC0F2
:1005B00046E152E060E070E08DE192E00E94660169
:1005C00080911D0234C044E152E06AE172E080E0B3
:1005D00090E00E94B30180911A0229C044E152E0E8
:1005E00002C040E050E060E070E08BE192E00E94E9
:1005F000B30180911B021BC040911F0250E060912B
:100600001D0270E080911B0290E00E9400020FC06A
:1006100040911F0250E060911D0270E080911B022A
:1006200090E00E94000280930C020E944802809396
:100630000702089588E084B980E48CBD08958EBDDA
:100640000DB407FEFDCF8EB50895CF93DF93EC0177
:100650008991882319F00E941F03FACFDF91CF916F
:1006600008950F931F93CF93DF93CDB7DEB7C45692
:10067000D1090FB6F894DEBF0FBECDBF9F938F9305
:1006800088E092E09F938F938E010F5F1F4F1F931F
:100690000F930E94B403C8010E9425038EB50F90EA
:1006A0000F900F900F900F900F90CC59DF4F0FB617
:1006B000F894DEBF0FBECDBFDF91CF911F910F9198
:1006C0000895EAE7F0E0808186608083ACE7B0E0DF
:1006D0008C9180648C938081806880830895909150
:1006E0007C00907E90937C0090917C00892B80937D
:1006F0007C0080917A00806480937A0080917A00F7
:1007000084FFFCCF80917A00806180937A00809191
:10071000780080932F029091790090932C02FA0137
:10072000808380912C02FB01808380912C0290E0D9
:10073000982F882740912F02842BF9019183808381
:1007400008950E9461030E941A030E94C6008FEF61
:1007500081B90E945A02FDCFEE0FFF1F881F8BBF89
:100760000790F691E02D19940F931F93CF93DF9389
:10077000CDB7DEB72E970FB6F894DEBF0FBECDBF54
:100780000E891F8986E08C831A8309838FEF9FE788
:100790009E838D83AE01465E5F4F688D798DCE015D
:1007A00001960E94E303EF81F885E00FF11F1082AC
:1007B0002E960FB6F894DEBF0FBECDBFDF91CF915E
:1007C0001F910F9108952F923F924F925F926F92D7
:1007D0007F928F929F92AF92BF92CF92DF92EF92D1
:1007E000FF920F931F93CF93DF93CDB7DEB72B9775
:1007F0000FB6F894DEBF0FBECDBF6C017B018A013E
:10080000FC0117821682838181FFCCC1CE01019643
:100810003C01F6019381F70193FD859193FF81914E
:100820007F01882309F4BAC1853239F493FD85919B
:1008300093FF81917F01853229F4B60190E00E94F7
:100840000306E7CF912C212C312CFFE1F315D8F0D2
:100850008B3279F038F4803279F08332A1F4232D91
:1008600020611DC08D3261F0803369F4232D216039
:1008700016C0832D8260382EE32DE4603E2E2AC000
:10088000F32DF8601DC037FC2DC020ED280F2A3055
:1008900040F08E32B9F436FC81C1232D2064322E13
:1008A00019C036FE06C08AE0989E200D1124922EB3
:1008B00011C0EAE02E9E200D1124222EF32DF062AD
:1008C0003F2E08C08C3621F4832D8068382E02C05C
:1008D000883641F4F70193FD859193FF81917F0163
:1008E0008111B3CF982F9F7D9554933028F40C5FDE
:1008F0001F4F9FE399830DC0833631F0833771F02A
:10090000833509F059C021C0F801808189830E5FC9
:100910001F4F88248394912C530113C02801F2E0C7
:100920004F0E511CF801A080B18036FE03C0692D26
:1009300070E002C06FEF7FEFC5010E94F8054C0127
:100940008201F32DFF773F2E16C0280122E0420ED0
:10095000511CF801A080B18036FE03C0692D70E003
:1009600002C06FEF7FEFC5010E94ED054C01F32D32
:10097000F0683F2E820133FC1BC0822D90E0881668
:100980009906B0F4B60180E290E00E9403062A9432
:10099000F4CFF50137FC859137FE81915F01B601F7
:1009A00090E00E94030621102A9421E0821A910807
:1009B0008114910471F7E8C0843611F0893641F54D
:1009C000F80137FE07C060817181828193810C5FDD
:1009D0001F4F08C060817181072E000C880B990B96
:1009E0000E5F1F4FF32DFF763F2E97FF09C09095A6
:1009F0008095709561957F4F8F4F9F4FF0683F2E88
:100A00002AE030E0A3010E943F06882E861845C0E8
:100A1000853731F4232D2F7EB22E2AE030E025C019
:100A2000932D997FB92E8F36C1F018F4883579F05F
:100A3000B5C0803719F0883721F0B0C0E92FE061E8
:100A4000BE2EB4FE0DC0FB2DF460BF2E09C034FED7
:100A50000AC0292F2660B22E06C028E030E005C06B
:100A600020E130E002C020E132E0F801B7FE07C02B
:100A700060817181828193810C5F1F4F06C060810C
:100A8000718180E090E00E5F1F4FA3010E943F063E
:100A9000882E8618FB2DFF773F2E36FE0DC0232DA6
:100AA0002E7FA22E891458F434FE0BC032FC09C0EC
:100AB000832D8E7EA82E05C0B82CA32C03C0B82C85
:100AC00001C0B92CA4FE0FC0FE01E80DF11D80810C
:100AD000803321F49A2D997EA92E09C0A2FE06C06A
:100AE000B394B39404C08A2D867809F0B394A3FC20
:100AF00011C0A0FE06C0B21488F4280C922C9B18DA
:100B00000EC0B21460F4B60180E290E00E940306C9
:100B1000B394F7CFB21418F42B1802C0982C212CE0
:100B2000A4FE10C0B60180E390E00E940306A2FE7E
:100B300017C0A1FC03C088E790E002C088E590E000
:100B4000B6010CC08A2D867859F0A1FE02C08BE256
:100B500001C080E2A7FC8DE2B60190E00E9403068E
:100B6000891438F4B60180E390E00E9403069A9459
:100B7000F7CF8A94F301E80DF11D8081B60190E072
:100B80000E9403068110F5CF222009F442CEB6015F
:100B900080E290E00E9403062A94F6CFF601868157
:100BA000978102C08FEF9FEF2B960FB6F894DEBFB0
:100BB0000FBECDBFDF91CF911F910F91FF90EF90AE
:100BC000DF90CF90BF90AF909F908F907F906F906D
:100BD0005F904F903F902F900895FC0105906150D9
:100BE00070400110D8F7809590958E0F9F1F089543
:100BF000FC016150704001900110D8F780959095EC
:100C00008E0F9F1F08950F931F93CF93DF93FB01C8
:100C1000238121FD03C08FEF9FEF2CC022FF16C060
:100C200046815781248135814217530744F4A081BE
:100C3000B1819D012F5F3F4F318320838C932681AB
:100C400037812F5F3F4F3783268314C08B01EC0120
:100C5000FB010084F185E02D1995892BE1F6D8017F
:100C600016968D919C911797019617969C938E934B
:100C70001697CE01DF91CF911F910F910895FA0140
:100C8000AA27283051F1203181F1E8946F936E7FCB
:100C90006E5F7F4F8F4F9F4FAF4FB1E03ED0B4E0BC
:100CA0003CD0670F781F891F9A1FA11D680F791FFD
:100CB0008A1F911DA11D6A0F711D811D911DA11D0E
:100CC00020D009F468943F912AE0269F112430191E
:100CD000305D3193DEF6CF010895462F4770405DB9
:100CE0004193B3E00FD0C9F7F6CF462F4F70405D68
:100CF0004A3318F0495D31FD4052419302D0A9F7C3
:100D0000EACFB4E0A6959795879577956795BA95BC
:100D1000C9F700976105710508959B01AC010A2E82
:100D200006945795479537952795BA95C9F7620F59
:0E0D3000731F841F951FA01D0895F894FFCF18
:0C0D3E00FF03FF03FF03304225640000A8
:00000001FF
